{
  "contractName": "Item",
  "abi": [
    {
      "inputs": [
        {
          "internalType": "contract ItemManager",
          "name": "_parentContract",
          "type": "address"
        },
        {
          "internalType": "uint256",
          "name": "_priceInWei",
          "type": "uint256"
        },
        {
          "internalType": "uint256",
          "name": "_index",
          "type": "uint256"
        }
      ],
      "stateMutability": "nonpayable",
      "type": "constructor"
    },
    {
      "stateMutability": "nonpayable",
      "type": "fallback"
    },
    {
      "inputs": [],
      "name": "index",
      "outputs": [
        {
          "internalType": "uint256",
          "name": "",
          "type": "uint256"
        }
      ],
      "stateMutability": "view",
      "type": "function"
    },
    {
      "inputs": [],
      "name": "priceInWei",
      "outputs": [
        {
          "internalType": "uint256",
          "name": "",
          "type": "uint256"
        }
      ],
      "stateMutability": "view",
      "type": "function"
    },
    {
      "inputs": [],
      "name": "pricePaid",
      "outputs": [
        {
          "internalType": "uint256",
          "name": "",
          "type": "uint256"
        }
      ],
      "stateMutability": "view",
      "type": "function"
    },
    {
      "stateMutability": "payable",
      "type": "receive"
    }
  ],
  "bytecode": "0x608060405234801561001057600080fd5b506040516104a43803806104a48339818101604052606081101561003357600080fd5b81019080805190602001909291908051906020019092919080519060200190929190505050816000819055508060028190555082600360006101000a81548173ffffffffffffffffffffffffffffffffffffffff021916908373ffffffffffffffffffffffffffffffffffffffff1602179055505050506103eb806100b96000396000f3fe6080604052600436106100385760003560e01c80632986c0e5146102fe5780633c8da5881461032957806389794d0014610354576102ef565b366102ef576000600154146100b5576040517f08c379a00000000000000000000000000000000000000000000000000000000081526004018080602001828103825260148152602001807f4974656d206973207061696420616c726561647900000000000000000000000081525060200191505060405180910390fd5b346000541461012c576040517f08c379a000000000000000000000000000000000000000000000000000000000815260040180806020018281038252601a8152602001807f4f6e6c792066756c6c207061796d656e747320616c6c6f77656400000000000081525060200191505060405180910390fd5b6000600360009054906101000a900473ffffffffffffffffffffffffffffffffffffffff1673ffffffffffffffffffffffffffffffffffffffff1634600254604051602401808281526020019150506040516020818303038152906040527f800fb83f000000000000000000000000000000000000000000000000000000007bffffffffffffffffffffffffffffffffffffffffffffffffffffffff19166020820180517bffffffffffffffffffffffffffffffffffffffffffffffffffffffff83818316178352505050506040518082805190602001908083835b6020831061022b5780518252602082019150602081019050602083039250610208565b6001836020036101000a03801982511681845116808217855250505050505090500191505060006040518083038185875af1925050503d806000811461028d576040519150601f19603f3d011682016040523d82523d6000602084013e610292565b606091505b50509050806102ec576040517f08c379a00000000000000000000000000000000000000000000000000000000081526004018080602001828103825260248152602001806103926024913960400191505060405180910390fd5b50005b3480156102fb57600080fd5b50005b34801561030a57600080fd5b5061031361037f565b6040518082815260200191505060405180910390f35b34801561033557600080fd5b5061033e610385565b6040518082815260200191505060405180910390f35b34801561036057600080fd5b5061036961038b565b6040518082815260200191505060405180910390f35b60025481565b60005481565b6001548156fe5472616e73616374696f6e20756e7375636365737366756c2c2063616e63656c6c696e67a264697066735822122056b10561c2e112a0122990eba32bd34e7538db2f82d60a39819f68fbc6a95e3564736f6c634300060c0033",
  "immutableReferences": {},
  "source": "pragma solidity ^0.6.0;\n\nimport \"./ItemManager.sol\";\n\n// Individual Contract for items to improve UI\ncontract Item {\n    uint public priceInWei;\n    uint public pricePaid;\n    uint public index;\n    \n    ItemManager parentContract;\n    \n    constructor(ItemManager _parentContract, uint _priceInWei, uint _index) public {\n        priceInWei = _priceInWei;\n        index = _index;\n        parentContract = _parentContract;\n    }\n    \n    receive() external payable {\n        require(pricePaid == 0, \"Item is paid already\");\n        require(priceInWei == msg.value, \"Only full payments allowed\");\n        (bool success, ) = address(parentContract).call{value:msg.value}(abi.encodeWithSignature(\"triggerPayment(uint256)\", index));\n        // Have to listen to return value. Gives 2 return values: boolean for success and any return values in triggerPayment. Only bool.\n        require(success, \"Transaction unsuccessful, cancelling\");\n    }\n    \n    fallback() external {\n        \n    }\n}",
  "sourcePath": "/Users/davidooi/Blockchain/projects/sup-chain/contracts/Item.sol",
  "compiler": {
    "name": "solc",
    "version": "0.6.12+commit.27d51765.Emscripten.clang"
  },
  "schemaVersion": "3.3.4",
  "updatedAt": "2021-03-10T04:04:51.797Z",
  "devdoc": {
    "kind": "dev",
    "methods": {},
    "version": 1
  },
  "userdoc": {
    "kind": "user",
    "methods": {},
    "version": 1
  }
}